{
  "_format": "hh-sol-artifact-1",
  "contractName": "BidGame",
  "sourceName": "contracts/BidGame.sol",
  "abi": [
    {
      "anonymous": false,
      "inputs": [
        {
          "indexed": false,
          "internalType": "uint256",
          "name": "_gameId",
          "type": "uint256"
        },
        {
          "indexed": false,
          "internalType": "uint8",
          "name": "_number",
          "type": "uint8"
        }
      ],
      "name": "GameCreated",
      "type": "event"
    },
    {
      "anonymous": false,
      "inputs": [
        {
          "indexed": false,
          "internalType": "uint256",
          "name": "_gameId",
          "type": "uint256"
        }
      ],
      "name": "GameFinished",
      "type": "event"
    },
    {
      "anonymous": false,
      "inputs": [
        {
          "indexed": false,
          "internalType": "uint256",
          "name": "_gameId",
          "type": "uint256"
        },
        {
          "indexed": true,
          "internalType": "address",
          "name": "_participant",
          "type": "address"
        },
        {
          "indexed": false,
          "internalType": "uint8",
          "name": "_number",
          "type": "uint8"
        }
      ],
      "name": "ParticipantJoined",
      "type": "event"
    },
    {
      "anonymous": false,
      "inputs": [
        {
          "indexed": false,
          "internalType": "uint256",
          "name": "_gameId",
          "type": "uint256"
        },
        {
          "indexed": true,
          "internalType": "address",
          "name": "_participant",
          "type": "address"
        },
        {
          "indexed": false,
          "internalType": "uint256",
          "name": "_amount",
          "type": "uint256"
        }
      ],
      "name": "PrizeTransfered",
      "type": "event"
    },
    {
      "inputs": [
        {
          "internalType": "uint256",
          "name": "",
          "type": "uint256"
        },
        {
          "internalType": "address",
          "name": "",
          "type": "address"
        }
      ],
      "name": "biddersList",
      "outputs": [
        {
          "internalType": "bool",
          "name": "participatedFlag",
          "type": "bool"
        },
        {
          "internalType": "uint8",
          "name": "number",
          "type": "uint8"
        }
      ],
      "stateMutability": "view",
      "type": "function"
    },
    {
      "inputs": [
        {
          "internalType": "uint256",
          "name": "_gameId",
          "type": "uint256"
        }
      ],
      "name": "claim",
      "outputs": [],
      "stateMutability": "nonpayable",
      "type": "function"
    },
    {
      "inputs": [
        {
          "internalType": "uint8",
          "name": "_number",
          "type": "uint8"
        }
      ],
      "name": "createGame",
      "outputs": [],
      "stateMutability": "payable",
      "type": "function"
    },
    {
      "inputs": [
        {
          "internalType": "uint256",
          "name": "_gameId",
          "type": "uint256"
        }
      ],
      "name": "finishGame",
      "outputs": [],
      "stateMutability": "nonpayable",
      "type": "function"
    },
    {
      "inputs": [
        {
          "internalType": "uint256",
          "name": "",
          "type": "uint256"
        }
      ],
      "name": "gamesList",
      "outputs": [
        {
          "internalType": "address",
          "name": "owner",
          "type": "address"
        },
        {
          "internalType": "bool",
          "name": "isFinished",
          "type": "bool"
        },
        {
          "internalType": "uint256",
          "name": "bid",
          "type": "uint256"
        },
        {
          "internalType": "uint256",
          "name": "participantsLimit",
          "type": "uint256"
        },
        {
          "internalType": "uint256",
          "name": "createdTimestamp",
          "type": "uint256"
        },
        {
          "internalType": "uint256",
          "name": "pool",
          "type": "uint256"
        },
        {
          "internalType": "uint256",
          "name": "individualPrize",
          "type": "uint256"
        }
      ],
      "stateMutability": "view",
      "type": "function"
    },
    {
      "inputs": [],
      "name": "generateRandom",
      "outputs": [
        {
          "internalType": "uint8",
          "name": "",
          "type": "uint8"
        }
      ],
      "stateMutability": "nonpayable",
      "type": "function"
    },
    {
      "inputs": [],
      "name": "getActualGames",
      "outputs": [
        {
          "internalType": "uint256[]",
          "name": "",
          "type": "uint256[]"
        }
      ],
      "stateMutability": "view",
      "type": "function"
    },
    {
      "inputs": [
        {
          "internalType": "address",
          "name": "_user",
          "type": "address"
        }
      ],
      "name": "getUserGames",
      "outputs": [
        {
          "internalType": "uint256[]",
          "name": "",
          "type": "uint256[]"
        }
      ],
      "stateMutability": "view",
      "type": "function"
    },
    {
      "inputs": [
        {
          "internalType": "uint256",
          "name": "_gameId",
          "type": "uint256"
        },
        {
          "internalType": "uint8",
          "name": "_number",
          "type": "uint8"
        }
      ],
      "name": "joinGame",
      "outputs": [],
      "stateMutability": "payable",
      "type": "function"
    },
    {
      "inputs": [
        {
          "internalType": "uint256",
          "name": "_gameId",
          "type": "uint256"
        },
        {
          "internalType": "uint256",
          "name": "_limitNumber",
          "type": "uint256"
        }
      ],
      "name": "limitParticipants",
      "outputs": [],
      "stateMutability": "nonpayable",
      "type": "function"
    },
    {
      "inputs": [
        {
          "internalType": "address",
          "name": "",
          "type": "address"
        },
        {
          "internalType": "uint256",
          "name": "",
          "type": "uint256"
        }
      ],
      "name": "prizeList",
      "outputs": [
        {
          "internalType": "bool",
          "name": "isWinner",
          "type": "bool"
        },
        {
          "internalType": "bool",
          "name": "isClaimed",
          "type": "bool"
        }
      ],
      "stateMutability": "view",
      "type": "function"
    }
  ],
  "bytecode": "0x608060405234801561001057600080fd5b50612ed3806100206000396000f3fe60806040526004361061009c5760003560e01c80635054c0a3116100645780635054c0a31461019b5780639ff0f4a9146101de578063ca6649c51461021c578063ce4d3ae014610238578063cfe186b214610261578063e580f6ab1461028a5761009c565b806302e4af01146100a1578063120aace6146100cc57806316466fe614610109578063208970d514610134578063379607f514610172575b600080fd5b3480156100ad57600080fd5b506100b66102a6565b6040516100c3919061200e565b60405180910390f35b3480156100d857600080fd5b506100f360048036038101906100ee919061208c565b610306565b6040516101009190612181565b60405180910390f35b34801561011557600080fd5b5061011e61075d565b60405161012b9190612181565b60405180910390f35b34801561014057600080fd5b5061015b600480360381019061015691906121cf565b6108ef565b60405161016992919061222a565b60405180910390f35b34801561017e57600080fd5b5061019960048036038101906101949190612253565b61093a565b005b3480156101a757600080fd5b506101c260048036038101906101bd9190612253565b610bba565b6040516101d5979695949392919061229e565b60405180910390f35b3480156101ea57600080fd5b506102056004803603810190610200919061230d565b610c29565b60405161021392919061234d565b60405180910390f35b610236600480360381019061023191906123a2565b610c74565b005b34801561024457600080fd5b5061025f600480360381019061025a91906123e2565b611155565b005b34801561026d57600080fd5b5061028860048036038101906102839190612253565b6112dc565b005b6102a4600480360381019061029f9190612422565b611c2e565b005b600080606542336001546040516020016102c2939291906124b8565b6040516020818303038152906040528051906020012060001c6102e59190612524565b9050600160008154809291906102fa90612584565b91905055508091505090565b606060006004600660008573ffffffffffffffffffffffffffffffffffffffff1673ffffffffffffffffffffffffffffffffffffffff1681526020019081526020016000206000018054905061035c91906125cc565b67ffffffffffffffff81111561037557610374612626565b5b6040519080825280602002602001820160405280156103a35781602001602082028036833780820191505090505b50905060005b600660008573ffffffffffffffffffffffffffffffffffffffff1673ffffffffffffffffffffffffffffffffffffffff1681526020019081526020016000206000018054905081101561075357600060048261040591906125cc565b90506000600660008773ffffffffffffffffffffffffffffffffffffffff1673ffffffffffffffffffffffffffffffffffffffff168152602001908152602001600020600001838154811061045d5761045c612655565b5b90600052602060002001549050600460008281526020019081526020016000206001015484838151811061049457610493612655565b5b6020026020010181815250506004600082815260200190815260200160002060050154846001846104c59190612684565b815181106104d6576104d5612655565b5b60200260200101818152505060046000828152602001908152602001600020600201805490508460028461050a9190612684565b8151811061051b5761051a612655565b5b60200260200101818152505080846004846105369190612684565b8151811061054757610546612655565b5b602002602001018181525050600760008773ffffffffffffffffffffffffffffffffffffffff1673ffffffffffffffffffffffffffffffffffffffff168152602001908152602001600020600082815260200190815260200160002060000160019054906101000a900460ff16156105eb576000846003846105c99190612684565b815181106105da576105d9612655565b5b60200260200101818152505061073e565b600760008773ffffffffffffffffffffffffffffffffffffffff1673ffffffffffffffffffffffffffffffffffffffff168152602001908152602001600020600082815260200190815260200160002060000160009054906101000a900460ff1615610683576001846003846106619190612684565b8151811061067257610671612655565b5b60200260200101818152505061073d565b6004600082815260200190815260200160002060000160149054906101000a900460ff161580156106d7575061012c60046000838152602001908152602001600020600501546106d39190612684565b4210155b1561070e576002846003846106ec9190612684565b815181106106fd576106fc612655565b5b60200260200101818152505061073c565b60008460038461071e9190612684565b8151811061072f5761072e612655565b5b6020026020010181815250505b5b5b5050808061074b90612584565b9150506103a9565b5080915050919050565b60606000600460025460005461077391906126da565b61077d91906125cc565b67ffffffffffffffff81111561079657610795612626565b5b6040519080825280602002602001820160405280156107c45781602001602082028036833780820191505090505b509050600060025490505b6000548110156108e75760006004826107e891906125cc565b9050600460008381526020019081526020016000206001015483828151811061081457610813612655565b5b6020026020010181815250506004600083815260200190815260200160002060050154836001836108459190612684565b8151811061085657610855612655565b5b60200260200101818152505060046000838152602001908152602001600020600201805490508360028361088a9190612684565b8151811061089b5761089a612655565b5b60200260200101818152505081836003836108b69190612684565b815181106108c7576108c6612655565b5b6020026020010181815250505080806108df90612584565b9150506107cf565b508091505090565b6005602052816000526040600020602052806000526040600020600091509150508060000160009054906101000a900460ff16908060000160019054906101000a900460ff16905082565b60011515600760003373ffffffffffffffffffffffffffffffffffffffff1673ffffffffffffffffffffffffffffffffffffffff168152602001908152602001600020600083815260200190815260200160002060000160009054906101000a900460ff161515146109e1576040517f08c379a00000000000000000000000000000000000000000000000000000000081526004016109d89061276b565b60405180910390fd5b60001515600760003373ffffffffffffffffffffffffffffffffffffffff1673ffffffffffffffffffffffffffffffffffffffff168152602001908152602001600020600083815260200190815260200160002060000160019054906101000a900460ff16151514610a88576040517f08c379a0000000000000000000000000000000000000000000000000000000008152600401610a7f906127d7565b60405180910390fd5b6001600760003373ffffffffffffffffffffffffffffffffffffffff1673ffffffffffffffffffffffffffffffffffffffff168152602001908152602001600020600083815260200190815260200160002060000160016101000a81548160ff0219169083151502179055503373ffffffffffffffffffffffffffffffffffffffff166108fc60046000848152602001908152602001600020600701549081150290604051600060405180830381858888f19350505050158015610b50573d6000803e3d6000fd5b503373ffffffffffffffffffffffffffffffffffffffff167ff569132dd86f7ca279052468c5bbb341b813f42fc5bd63506782c20fb25c3b56826004600085815260200190815260200160002060070154604051610baf9291906127f7565b60405180910390a250565b60046020528060005260406000206000915090508060000160009054906101000a900473ffffffffffffffffffffffffffffffffffffffff16908060000160149054906101000a900460ff16908060010154908060040154908060050154908060060154908060070154905087565b6007602052816000526040600020602052806000526040600020600091509150508060000160009054906101000a900460ff16908060000160019054906101000a900460ff16905082565b8060008160ff1610158015610c8d575060648160ff1611155b610ccc576040517f08c379a0000000000000000000000000000000000000000000000000000000008152600401610cc39061286c565b60405180910390fd5b8261012c6004600083815260200190815260200160002060050154610cf19190612684565b421115610d33576040517f08c379a0000000000000000000000000000000000000000000000000000000008152600401610d2a906128d8565b60405180910390fd5b60046000858152602001908152602001600020600101543414610d8b576040517f08c379a0000000000000000000000000000000000000000000000000000000008152600401610d829061296a565b60405180910390fd5b6004600085815260200190815260200160002060000160009054906101000a900473ffffffffffffffffffffffffffffffffffffffff1673ffffffffffffffffffffffffffffffffffffffff163373ffffffffffffffffffffffffffffffffffffffff1603610e2f576040517f08c379a0000000000000000000000000000000000000000000000000000000008152600401610e26906129fc565b60405180910390fd5b600060046000868152602001908152602001600020600401541480610e82575060046000858152602001908152602001600020600401546004600086815260200190815260200160002060020180549050105b610ec1576040517f08c379a0000000000000000000000000000000000000000000000000000000008152600401610eb890612a8e565b60405180910390fd5b34600460008681526020019081526020016000206006016000828254610ee79190612684565b9250508190555060046000858152602001908152602001600020600201339080600181540180825580915050600190039060005260206000200160009091909190916101000a81548173ffffffffffffffffffffffffffffffffffffffff021916908373ffffffffffffffffffffffffffffffffffffffff160217905550600460008581526020019081526020016000206003018390806001815401808255809150506001900390600052602060002090602091828204019190069091909190916101000a81548160ff021916908360ff160217905550826005600086815260200190815260200160002060003373ffffffffffffffffffffffffffffffffffffffff1673ffffffffffffffffffffffffffffffffffffffff16815260200190815260200160002060000160016101000a81548160ff021916908360ff16021790555060016005600086815260200190815260200160002060003373ffffffffffffffffffffffffffffffffffffffff1673ffffffffffffffffffffffffffffffffffffffff16815260200190815260200160002060000160006101000a81548160ff021916908315150217905550600660003373ffffffffffffffffffffffffffffffffffffffff1673ffffffffffffffffffffffffffffffffffffffff1681526020019081526020016000206000018490806001815401808255809150506001900390600052602060002001600090919091909150553373ffffffffffffffffffffffffffffffffffffffff167f49cebb9a586c1e3a485cf361b12f25391e3e11337f46da31d887cd42e37912698585604051611147929190612aae565b60405180910390a250505050565b8161012c600460008381526020019081526020016000206005015461117a9190612684565b4211156111bc576040517f08c379a00000000000000000000000000000000000000000000000000000000081526004016111b3906128d8565b60405180910390fd5b6004600084815260200190815260200160002060000160009054906101000a900473ffffffffffffffffffffffffffffffffffffffff1673ffffffffffffffffffffffffffffffffffffffff163373ffffffffffffffffffffffffffffffffffffffff1614611260576040517f08c379a000000000000000000000000000000000000000000000000000000000815260040161125790612b49565b60405180910390fd5b60046000848152602001908152602001600020600201805490508210156112bc576040517f08c379a00000000000000000000000000000000000000000000000000000000081526004016112b390612bdb565b60405180910390fd5b816004600085815260200190815260200160002060040181905550505050565b600015156004600083815260200190815260200160002060000160149054906101000a900460ff16151514611346576040517f08c379a000000000000000000000000000000000000000000000000000000000815260040161133d90612c47565b60405180910390fd5b61012c600460008381526020019081526020016000206005015461136a9190612684565b42116113ab576040517f08c379a00000000000000000000000000000000000000000000000000000000081526004016113a290612cd9565b60405180910390fd5b600115156005600083815260200190815260200160002060003373ffffffffffffffffffffffffffffffffffffffff1673ffffffffffffffffffffffffffffffffffffffff16815260200190815260200160002060000160009054906101000a900460ff16151514611452576040517f08c379a000000000000000000000000000000000000000000000000000000000815260040161144990612d6b565b60405180910390fd5b6001600460008381526020019081526020016000206002018054905003611515576001600760003373ffffffffffffffffffffffffffffffffffffffff1673ffffffffffffffffffffffffffffffffffffffff168152602001908152602001600020600083815260200190815260200160002060000160006101000a81548160ff02191690831515021790555060046000828152602001908152602001600020600601546004600083815260200190815260200160002060070181905550611bbe565b600061151f6102a6565b90506000600460008481526020019081526020016000206002018054905067ffffffffffffffff81111561155657611555612626565b5b6040519080825280602002602001820160405280156115845781602001602082028036833780820191505090505b5090506000600460008581526020019081526020016000206003018054905067ffffffffffffffff8111156115bc576115bb612626565b5b6040519080825280602002602001820160405280156115ea5781602001602082028036833780820191505090505b5090506004600085815260200190815260200160002060020180548060200260200160405190810160405280929190818152602001828054801561168357602002820191906000526020600020905b8160009054906101000a900473ffffffffffffffffffffffffffffffffffffffff1673ffffffffffffffffffffffffffffffffffffffff1681526020019060010190808311611639575b505050505091506004600085815260200190815260200160002060030180548060200260200160405190810160405280929190818152602001828054801561171057602002820191906000526020600020906000905b82829054906101000a900460ff1660ff16815260200190600101906020826000010492830192600103820291508084116116d95790505b5050505050905060005b6001825161172891906126da565b8110156119f35760008190506000808660ff1685848151811061174e5761174d612655565b5b602002602001015160ff161061178b578685848151811061177257611771612655565b5b60200260200101516117849190612d8b565b91506117b4565b84838151811061179e5761179d612655565b5b6020026020010151876117b19190612d8b565b91505b60006001856117c39190612684565b90505b8551811015611874578760ff168682815181106117e6576117e5612655565b5b602002602001015160ff1610611823578786828151811061180a57611809612655565b5b602002602001015161181c9190612d8b565b915061184c565b85818151811061183657611835612655565b5b6020026020010151886118499190612d8b565b91505b8260ff168260ff161015611861578093508192505b808061186c90612584565b9150506117c6565b508383146119dd57600085858151811061189157611890612655565b5b6020026020010151905060008786815181106118b0576118af612655565b5b602002602001015190508685815181106118cd576118cc612655565b5b60200260200101518787815181106118e8576118e7612655565b5b602002602001019060ff16908160ff168152505087858151811061190f5761190e612655565b5b602002602001015188878151811061192a57611929612655565b5b602002602001019073ffffffffffffffffffffffffffffffffffffffff16908173ffffffffffffffffffffffffffffffffffffffff16815250508187868151811061197857611977612655565b5b602002602001019060ff16908160ff1681525050808886815181106119a05761199f612655565b5b602002602001019073ffffffffffffffffffffffffffffffffffffffff16908173ffffffffffffffffffffffffffffffffffffffff168152505050505b50505080806119eb90612584565b91505061171a565b506000600a60038451611a0691906125cc565b611a109190612dbf565b905060008103611ad75760016007600085600081518110611a3457611a33612655565b5b602002602001015173ffffffffffffffffffffffffffffffffffffffff1673ffffffffffffffffffffffffffffffffffffffff168152602001908152602001600020600087815260200190815260200160002060000160006101000a81548160ff02191690831515021790555060046000868152602001908152602001600020600601546004600087815260200190815260200160002060070181905550611bb9565b60005b81811015611bb757600160076000868481518110611afb57611afa612655565b5b602002602001015173ffffffffffffffffffffffffffffffffffffffff1673ffffffffffffffffffffffffffffffffffffffff168152602001908152602001600020600088815260200190815260200160002060000160006101000a81548160ff021916908315150217905550816004600088815260200190815260200160002060060154611b8a9190612dbf565b60046000888152602001908152602001600020600701819055508080611baf90612584565b915050611ada565b505b505050505b60016004600083815260200190815260200160002060000160146101000a81548160ff021916908315150217905550806002819055507f6543ec12c6e53f26532beb5289ef5732dcd77c2e9e9921ae42b695905f5e84c081604051611c239190612df0565b60405180910390a150565b8060008160ff1610158015611c47575060648160ff1611155b611c86576040517f08c379a0000000000000000000000000000000000000000000000000000000008152600401611c7d9061286c565b60405180910390fd5b60003411611cc9576040517f08c379a0000000000000000000000000000000000000000000000000000000008152600401611cc090612e7d565b60405180910390fd5b33600460008054815260200190815260200160002060000160006101000a81548173ffffffffffffffffffffffffffffffffffffffff021916908373ffffffffffffffffffffffffffffffffffffffff1602179055503460046000805481526020019081526020016000206006016000828254611d469190612684565b92505081905550346004600080548152602001908152602001600020600101819055506004600080548152602001908152602001600020600201339080600181540180825580915050600190039060005260206000200160009091909190916101000a81548173ffffffffffffffffffffffffffffffffffffffff021916908373ffffffffffffffffffffffffffffffffffffffff16021790555060046000805481526020019081526020016000206003018290806001815401808255809150506001900390600052602060002090602091828204019190069091909190916101000a81548160ff021916908360ff1602179055504260046000805481526020019081526020016000206005018190555081600560008054815260200190815260200160002060003373ffffffffffffffffffffffffffffffffffffffff1673ffffffffffffffffffffffffffffffffffffffff16815260200190815260200160002060000160016101000a81548160ff021916908360ff1602179055506001600560008054815260200190815260200160002060003373ffffffffffffffffffffffffffffffffffffffff1673ffffffffffffffffffffffffffffffffffffffff16815260200190815260200160002060000160006101000a81548160ff021916908315150217905550600660003373ffffffffffffffffffffffffffffffffffffffff1673ffffffffffffffffffffffffffffffffffffffff16815260200190815260200160002060000160005490806001815401808255809150506001900390600052602060002001600090919091909150557f33fbd5015d61fe861a1a149e88720cc4ee49722a3c3dd94d6947600a9de1993860005483604051611fcf929190612aae565b60405180910390a1600080815480929190611fe990612584565b91905055505050565b600060ff82169050919050565b61200881611ff2565b82525050565b60006020820190506120236000830184611fff565b92915050565b600080fd5b600073ffffffffffffffffffffffffffffffffffffffff82169050919050565b60006120598261202e565b9050919050565b6120698161204e565b811461207457600080fd5b50565b60008135905061208681612060565b92915050565b6000602082840312156120a2576120a1612029565b5b60006120b084828501612077565b91505092915050565b600081519050919050565b600082825260208201905092915050565b6000819050602082019050919050565b6000819050919050565b6120f8816120e5565b82525050565b600061210a83836120ef565b60208301905092915050565b6000602082019050919050565b600061212e826120b9565b61213881856120c4565b9350612143836120d5565b8060005b8381101561217457815161215b88826120fe565b975061216683612116565b925050600181019050612147565b5085935050505092915050565b6000602082019050818103600083015261219b8184612123565b905092915050565b6121ac816120e5565b81146121b757600080fd5b50565b6000813590506121c9816121a3565b92915050565b600080604083850312156121e6576121e5612029565b5b60006121f4858286016121ba565b925050602061220585828601612077565b9150509250929050565b60008115159050919050565b6122248161220f565b82525050565b600060408201905061223f600083018561221b565b61224c6020830184611fff565b9392505050565b60006020828403121561226957612268612029565b5b6000612277848285016121ba565b91505092915050565b6122898161204e565b82525050565b612298816120e5565b82525050565b600060e0820190506122b3600083018a612280565b6122c0602083018961221b565b6122cd604083018861228f565b6122da606083018761228f565b6122e7608083018661228f565b6122f460a083018561228f565b61230160c083018461228f565b98975050505050505050565b6000806040838503121561232457612323612029565b5b600061233285828601612077565b9250506020612343858286016121ba565b9150509250929050565b6000604082019050612362600083018561221b565b61236f602083018461221b565b9392505050565b61237f81611ff2565b811461238a57600080fd5b50565b60008135905061239c81612376565b92915050565b600080604083850312156123b9576123b8612029565b5b60006123c7858286016121ba565b92505060206123d88582860161238d565b9150509250929050565b600080604083850312156123f9576123f8612029565b5b6000612407858286016121ba565b9250506020612418858286016121ba565b9150509250929050565b60006020828403121561243857612437612029565b5b60006124468482850161238d565b91505092915050565b6000819050919050565b61246a612465826120e5565b61244f565b82525050565b60008160601b9050919050565b600061248882612470565b9050919050565b600061249a8261247d565b9050919050565b6124b26124ad8261204e565b61248f565b82525050565b60006124c48286612459565b6020820191506124d482856124a1565b6014820191506124e48284612459565b602082019150819050949350505050565b7f4e487b7100000000000000000000000000000000000000000000000000000000600052601260045260246000fd5b600061252f826120e5565b915061253a836120e5565b92508261254a576125496124f5565b5b828206905092915050565b7f4e487b7100000000000000000000000000000000000000000000000000000000600052601160045260246000fd5b600061258f826120e5565b91507fffffffffffffffffffffffffffffffffffffffffffffffffffffffffffffffff82036125c1576125c0612555565b5b600182019050919050565b60006125d7826120e5565b91506125e2836120e5565b9250817fffffffffffffffffffffffffffffffffffffffffffffffffffffffffffffffff048311821515161561261b5761261a612555565b5b828202905092915050565b7f4e487b7100000000000000000000000000000000000000000000000000000000600052604160045260246000fd5b7f4e487b7100000000000000000000000000000000000000000000000000000000600052603260045260246000fd5b600061268f826120e5565b915061269a836120e5565b9250827fffffffffffffffffffffffffffffffffffffffffffffffffffffffffffffffff038211156126cf576126ce612555565b5b828201905092915050565b60006126e5826120e5565b91506126f0836120e5565b92508282101561270357612702612555565b5b828203905092915050565b600082825260208201905092915050565b7f596f7520617265206e6f7420612077696e6e6572206f66207468652067616d65600082015250565b600061275560208361270e565b91506127608261271f565b602082019050919050565b6000602082019050818103600083015261278481612748565b9050919050565b7f5072697a6520697320636c61696d656420616c72656164790000000000000000600082015250565b60006127c160188361270e565b91506127cc8261278b565b602082019050919050565b600060208201905081810360008301526127f0816127b4565b9050919050565b600060408201905061280c600083018561228f565b612819602083018461228f565b9392505050565b7f43686f6f7365206e756d626572206265747765656e203020616e642031303000600082015250565b6000612856601f8361270e565b915061286182612820565b602082019050919050565b6000602082019050818103600083015261288581612849565b9050919050565b7f5468652067616d652069732066696e6973686564000000000000000000000000600082015250565b60006128c260148361270e565b91506128cd8261288c565b602082019050919050565b600060208201905081810360008301526128f1816128b5565b9050919050565b7f56616c7565206f6620746865207472616e73616374696f6e2073686f756c642060008201527f626520657175616c20746f207468652067616d65000000000000000000000000602082015250565b600061295460348361270e565b915061295f826128f8565b604082019050919050565b6000602082019050818103600083015261298381612947565b9050919050565b7f4f776e657220697320616c726561647920696e207061727469636970616e747360008201527f206c697374000000000000000000000000000000000000000000000000000000602082015250565b60006129e660258361270e565b91506129f18261298a565b604082019050919050565b60006020820190508181036000830152612a15816129d9565b9050919050565b7f5061727469636970616e7473206c696d697420686173206265656e207265616360008201527f6865640000000000000000000000000000000000000000000000000000000000602082015250565b6000612a7860238361270e565b9150612a8382612a1c565b604082019050919050565b60006020820190508181036000830152612aa781612a6b565b9050919050565b6000604082019050612ac3600083018561228f565b612ad06020830184611fff565b9392505050565b7f4f6e6c792067616d65206f776e65722063616e206c696d6974206e756d62657260008201527f206f66207061727469636970616e747300000000000000000000000000000000602082015250565b6000612b3360308361270e565b9150612b3e82612ad7565b604082019050919050565b60006020820190508181036000830152612b6281612b26565b9050919050565b7f43757272656e742067616d6520616c726561647920686173206d6f726520706160008201527f727469636970616e7473207468616e206c696d6974206e756d62657200000000602082015250565b6000612bc5603c8361270e565b9150612bd082612b69565b604082019050919050565b60006020820190508181036000830152612bf481612bb8565b9050919050565b7f5468652067616d652069732066696e697368656420616c726561647900000000600082015250565b6000612c31601c8361270e565b9150612c3c82612bfb565b602082019050919050565b60006020820190508181036000830152612c6081612c24565b9050919050565b7f596f752063616e2066696e69736820612067616d65206f6e6c7920616674657260008201527f20657861637420706572696f6400000000000000000000000000000000000000602082015250565b6000612cc3602d8361270e565b9150612cce82612c67565b604082019050919050565b60006020820190508181036000830152612cf281612cb6565b9050919050565b7f4f6e6c79207061727469636970616e74732063616e2066696e6973682061206760008201527f616d650000000000000000000000000000000000000000000000000000000000602082015250565b6000612d5560238361270e565b9150612d6082612cf9565b604082019050919050565b60006020820190508181036000830152612d8481612d48565b9050919050565b6000612d9682611ff2565b9150612da183611ff2565b925082821015612db457612db3612555565b5b828203905092915050565b6000612dca826120e5565b9150612dd5836120e5565b925082612de557612de46124f5565b5b828204905092915050565b6000602082019050612e05600083018461228f565b92915050565b7f467265652067616d657320617265206e6f7420737570706f727465642068657260008201527f6521000000000000000000000000000000000000000000000000000000000000602082015250565b6000612e6760228361270e565b9150612e7282612e0b565b604082019050919050565b60006020820190508181036000830152612e9681612e5a565b905091905056fea26469706673582212209f31d622addbde34bf75e67ac3fdba1f114f20dc940f7f8e8ecbf097fb57d6ee64736f6c634300080d0033",
  "linkReferences": {},
  "deployedLinkReferences": {}
}